{
  "contractName": "Vote",
  "abi": [
    {
      "inputs": [],
      "stateMutability": "nonpayable",
      "type": "constructor"
    },
    {
      "inputs": [],
      "name": "winner",
      "outputs": [
        {
          "internalType": "address",
          "name": "",
          "type": "address"
        }
      ],
      "stateMutability": "view",
      "type": "function",
      "constant": true
    },
    {
      "inputs": [],
      "name": "getWinner",
      "outputs": [
        {
          "internalType": "address",
          "name": "",
          "type": "address"
        }
      ],
      "stateMutability": "view",
      "type": "function",
      "constant": true
    },
    {
      "inputs": [
        {
          "internalType": "string",
          "name": "_name",
          "type": "string"
        },
        {
          "internalType": "uint256",
          "name": "_age",
          "type": "uint256"
        },
        {
          "internalType": "string",
          "name": "_gender",
          "type": "string"
        }
      ],
      "name": "voterRegister",
      "outputs": [
        {
          "internalType": "bool",
          "name": "",
          "type": "bool"
        }
      ],
      "stateMutability": "nonpayable",
      "type": "function"
    },
    {
      "inputs": [
        {
          "internalType": "uint256",
          "name": "_voterId",
          "type": "uint256"
        },
        {
          "internalType": "uint256",
          "name": "_id",
          "type": "uint256"
        }
      ],
      "name": "vote",
      "outputs": [],
      "stateMutability": "nonpayable",
      "type": "function"
    },
    {
      "inputs": [
        {
          "internalType": "string",
          "name": "_name",
          "type": "string"
        },
        {
          "internalType": "string",
          "name": "_party",
          "type": "string"
        },
        {
          "internalType": "uint256",
          "name": "_age",
          "type": "uint256"
        },
        {
          "internalType": "string",
          "name": "_gender",
          "type": "string"
        }
      ],
      "name": "candidateRegister",
      "outputs": [],
      "stateMutability": "nonpayable",
      "type": "function"
    },
    {
      "inputs": [],
      "name": "result",
      "outputs": [],
      "stateMutability": "nonpayable",
      "type": "function"
    },
    {
      "inputs": [],
      "name": "candidateList",
      "outputs": [
        {
          "components": [
            {
              "internalType": "string",
              "name": "name",
              "type": "string"
            },
            {
              "internalType": "string",
              "name": "party",
              "type": "string"
            },
            {
              "internalType": "uint256",
              "name": "age",
              "type": "uint256"
            },
            {
              "internalType": "string",
              "name": "gender",
              "type": "string"
            },
            {
              "internalType": "uint256",
              "name": "candidateId",
              "type": "uint256"
            },
            {
              "internalType": "address",
              "name": "candidateAddress",
              "type": "address"
            },
            {
              "internalType": "uint256",
              "name": "votes",
              "type": "uint256"
            }
          ],
          "internalType": "struct Vote.Candidate[]",
          "name": "",
          "type": "tuple[]"
        }
      ],
      "stateMutability": "view",
      "type": "function",
      "constant": true
    },
    {
      "inputs": [],
      "name": "voterList",
      "outputs": [
        {
          "components": [
            {
              "internalType": "string",
              "name": "name",
              "type": "string"
            },
            {
              "internalType": "uint256",
              "name": "age",
              "type": "uint256"
            },
            {
              "internalType": "uint256",
              "name": "voterId",
              "type": "uint256"
            },
            {
              "internalType": "string",
              "name": "gender",
              "type": "string"
            },
            {
              "internalType": "uint256",
              "name": "voteCandidateId",
              "type": "uint256"
            },
            {
              "internalType": "address",
              "name": "voterAddress",
              "type": "address"
            }
          ],
          "internalType": "struct Vote.Voter[]",
          "name": "",
          "type": "tuple[]"
        }
      ],
      "stateMutability": "view",
      "type": "function",
      "constant": true
    },
    {
      "inputs": [
        {
          "internalType": "uint256",
          "name": "_startTime",
          "type": "uint256"
        },
        {
          "internalType": "uint256",
          "name": "_endTime",
          "type": "uint256"
        }
      ],
      "name": "voteTime",
      "outputs": [],
      "stateMutability": "nonpayable",
      "type": "function"
    },
    {
      "inputs": [],
      "name": "votingStatus",
      "outputs": [
        {
          "internalType": "string",
          "name": "",
          "type": "string"
        }
      ],
      "stateMutability": "view",
      "type": "function",
      "constant": true
    },
    {
      "inputs": [],
      "name": "emergency",
      "outputs": [],
      "stateMutability": "nonpayable",
      "type": "function"
    }
  ],
  "bytecode": "0x60806040526001600255600160035534801561001a57600080fd5b50336000806101000a81548173ffffffffffffffffffffffffffffffffffffffff021916908373ffffffffffffffffffffffffffffffffffffffff160217905550612c018061006a6000396000f3fe608060405234801561001057600080fd5b50600436106100a95760003560e01c80638e7ea5b2116100715780638e7ea5b21461012e57806393e5fed21461014c578063b384abef1461017c578063caa6fea414610198578063cf5ce2e7146101a2578063dfbf53ae146101be576100a9565b806319f41a40146100ae57806324089918146100cc578063498ea441146100ea578063653721471461010857806365ca2be314610112575b600080fd5b6100b66101dc565b6040516100c39190611d97565b60405180910390f35b6100d46102d6565b6040516100e19190611faf565b60405180910390f35b6100f261054a565b6040516100ff919061213d565b60405180910390f35b610110610850565b005b61012c60048036038101906101279190612195565b610a5d565b005b610136610b30565b60405161014391906121e4565b60405180910390f35b61016660048036038101906101619190612264565b610b5a565b6040516101739190612314565b60405180910390f35b61019660048036038101906101919190612195565b610e99565b005b6101a0611109565b005b6101bc60048036038101906101b7919061232f565b6111b4565b005b6101c6611491565b6040516101d391906121e4565b60405180910390f35b6060600060045403610225576040518060400160405280600b81526020017f4e6f74205374617274656400000000000000000000000000000000000000000081525090506102d3565b600060045414158015610239575042600554115b8015610258575060001515600860009054906101000a900460ff161515145b1561029a576040518060400160405280600b81526020017f496e2070726f677265737300000000000000000000000000000000000000000081525090506102d3565b6040518060400160405280600581526020017f456e64656400000000000000000000000000000000000000000000000000000081525090505b90565b6060600060016002546102e99190612427565b67ffffffffffffffff8111156103025761030161245b565b5b60405190808252806020026020018201604052801561033b57816020015b610328611b2f565b8152602001906001900390816103205790505b5090506000600190505b60025481101561054257600660008281526020019081526020016000206040518060c001604052908160008201805461037d906124b9565b80601f01602080910402602001604051908101604052809291908181526020018280546103a9906124b9565b80156103f65780601f106103cb576101008083540402835291602001916103f6565b820191906000526020600020905b8154815290600101906020018083116103d957829003601f168201915b505050505081526020016001820154815260200160028201548152602001600382018054610423906124b9565b80601f016020809104026020016040519081016040528092919081815260200182805461044f906124b9565b801561049c5780601f106104715761010080835404028352916020019161049c565b820191906000526020600020905b81548152906001019060200180831161047f57829003601f168201915b50505050508152602001600482015481526020016005820160009054906101000a900473ffffffffffffffffffffffffffffffffffffffff1673ffffffffffffffffffffffffffffffffffffffff1673ffffffffffffffffffffffffffffffffffffffff1681525050826001836105139190612427565b81518110610524576105236124ea565b5b6020026020010181905250808061053a90612519565b915050610345565b508091505090565b60606000600160035461055d9190612427565b67ffffffffffffffff8111156105765761057561245b565b5b6040519080825280602002602001820160405280156105af57816020015b61059c611b7b565b8152602001906001900390816105945790505b5090506000600190505b60035481101561084857600760008281526020019081526020016000206040518060e00160405290816000820180546105f1906124b9565b80601f016020809104026020016040519081016040528092919081815260200182805461061d906124b9565b801561066a5780601f1061063f5761010080835404028352916020019161066a565b820191906000526020600020905b81548152906001019060200180831161064d57829003601f168201915b50505050508152602001600182018054610683906124b9565b80601f01602080910402602001604051908101604052809291908181526020018280546106af906124b9565b80156106fc5780601f106106d1576101008083540402835291602001916106fc565b820191906000526020600020905b8154815290600101906020018083116106df57829003601f168201915b505050505081526020016002820154815260200160038201805461071f906124b9565b80601f016020809104026020016040519081016040528092919081815260200182805461074b906124b9565b80156107985780601f1061076d57610100808354040283529160200191610798565b820191906000526020600020905b81548152906001019060200180831161077b57829003601f168201915b50505050508152602001600482015481526020016005820160009054906101000a900473ffffffffffffffffffffffffffffffffffffffff1673ffffffffffffffffffffffffffffffffffffffff1673ffffffffffffffffffffffffffffffffffffffff168152602001600682015481525050826001836108199190612427565b8151811061082a576108296124ea565b5b6020026020010181905250808061084090612519565b9150506105b9565b508091505090565b60008054906101000a900473ffffffffffffffffffffffffffffffffffffffff1673ffffffffffffffffffffffffffffffffffffffff163373ffffffffffffffffffffffffffffffffffffffff16146108de576040517f08c379a00000000000000000000000000000000000000000000000000000000081526004016108d5906125d3565b60405180910390fd5b600060016003546108ef9190612427565b67ffffffffffffffff8111156109085761090761245b565b5b60405190808252806020026020018201604052801561094157816020015b61092e611b7b565b8152602001906001900390816109265790505b50905061094c61054a565b905080600181518110610962576109616124ea565b5b602002602001015160c0015181600081518110610982576109816124ea565b5b602002602001015160c0015111156109f957806000815181106109a8576109a76124ea565b5b602002602001015160a00151600160006101000a81548173ffffffffffffffffffffffffffffffffffffffff021916908373ffffffffffffffffffffffffffffffffffffffff160217905550610a5a565b80600181518110610a0d57610a0c6124ea565b5b602002602001015160a00151600160006101000a81548173ffffffffffffffffffffffffffffffffffffffff021916908373ffffffffffffffffffffffffffffffffffffffff1602179055505b50565b60008054906101000a900473ffffffffffffffffffffffffffffffffffffffff1673ffffffffffffffffffffffffffffffffffffffff163373ffffffffffffffffffffffffffffffffffffffff1614610aeb576040517f08c379a0000000000000000000000000000000000000000000000000000000008152600401610ae290612665565b60405180910390fd5b8142610af79190612685565b60048190555080600454610b0b9190612685565b6005819055506000600860006101000a81548160ff0219169083151502179055505050565b6000600160009054906101000a900473ffffffffffffffffffffffffffffffffffffffff16905090565b6000610b65336114b7565b610ba4576040517f08c379a0000000000000000000000000000000000000000000000000000000008152600401610b9b90612727565b60405180910390fd5b6012841015610be8576040517f08c379a0000000000000000000000000000000000000000000000000000000008152600401610bdf90612793565b60405180910390fd5b6040518060c0016040528087878080601f016020809104026020016040519081016040528093929190818152602001838380828437600081840152601f19601f820116905080830192505050505050508152602001858152602001600254815260200184848080601f016020809104026020016040519081016040528093929190818152602001838380828437600081840152601f19601f820116905080830192505050505050508152602001600081526020013373ffffffffffffffffffffffffffffffffffffffff168152506006600060025481526020019081526020016000206000820151816000019080519060200190610ce7929190611bce565b5060208201518160010155604082015181600201556060820151816003019080519060200190610d18929190611bce565b506080820151816004015560a08201518160050160006101000a81548173ffffffffffffffffffffffffffffffffffffffff021916908373ffffffffffffffffffffffffffffffffffffffff160217905550905050600960066000600254815260200190815260200160002090806001815401808255809150506001900390600052602060002090600602016000909190919091506000820181600001908054610dc1906124b9565b610dcc929190611c54565b5060018201548160010155600282015481600201556003820181600301908054610df5906124b9565b610e00929190611c54565b50600482015481600401556005820160009054906101000a900473ffffffffffffffffffffffffffffffffffffffff168160050160006101000a81548173ffffffffffffffffffffffffffffffffffffffff021916908373ffffffffffffffffffffffffffffffffffffffff160217905550505060026000815480929190610e8790612519565b91905055506001905095945050505050565b426005541180610eb55750600860009054906101000a900460ff165b610ef4576040517f08c379a0000000000000000000000000000000000000000000000000000000008152600401610eeb906127ff565b60405180910390fd5b6000600660008481526020019081526020016000206004015414610f4d576040517f08c379a0000000000000000000000000000000000000000000000000000000008152600401610f449061286b565b60405180910390fd5b3373ffffffffffffffffffffffffffffffffffffffff166006600084815260200190815260200160002060050160009054906101000a900473ffffffffffffffffffffffffffffffffffffffff1673ffffffffffffffffffffffffffffffffffffffff1614610ff1576040517f08c379a0000000000000000000000000000000000000000000000000000000008152600401610fe8906128d7565b60405180910390fd5b600060045403611036576040517f08c379a000000000000000000000000000000000000000000000000000000000815260040161102d90612943565b60405180910390fd5b60026003541161107b576040517f08c379a0000000000000000000000000000000000000000000000000000000008152600401611072906129af565b60405180910390fd5b600381106110be576040517f08c379a00000000000000000000000000000000000000000000000000000000081526004016110b590612a1b565b60405180910390fd5b80600660008481526020019081526020016000206004018190555060076000828152602001908152602001600020600601600081548092919061110090612519565b91905055505050565b3373ffffffffffffffffffffffffffffffffffffffff1660008054906101000a900473ffffffffffffffffffffffffffffffffffffffff1673ffffffffffffffffffffffffffffffffffffffff1614611197576040517f08c379a000000000000000000000000000000000000000000000000000000000815260040161118e90612aad565b60405180910390fd5b6001600860006101000a81548160ff021916908315150217905550565b6111bd336117aa565b6111fc576040517f08c379a00000000000000000000000000000000000000000000000000000000081526004016111f390612727565b60405180910390fd5b6012831015611240576040517f08c379a000000000000000000000000000000000000000000000000000000000815260040161123790612b3f565b60405180910390fd5b6003805410611284576040517f08c379a000000000000000000000000000000000000000000000000000000000815260040161127b90612bab565b60405180910390fd5b6040518060e0016040528088888080601f016020809104026020016040519081016040528093929190818152602001838380828437600081840152601f19601f82011690508083019250505050505050815260200186868080601f016020809104026020016040519081016040528093929190818152602001838380828437600081840152601f19601f82011690508083019250505050505050815260200184815260200183838080601f016020809104026020016040519081016040528093929190818152602001838380828437600081840152601f19601f82011690508083019250505050505050815260200160035481526020013373ffffffffffffffffffffffffffffffffffffffff168152602001600081525060076000600354815260200190815260200160002060008201518160000190805190602001906113cd929190611bce565b5060208201518160010190805190602001906113ea929190611bce565b50604082015181600201556060820151816003019080519060200190611411929190611bce565b506080820151816004015560a08201518160050160006101000a81548173ffffffffffffffffffffffffffffffffffffffff021916908373ffffffffffffffffffffffffffffffffffffffff16021790555060c082015181600601559050506003600081548092919061148390612519565b919050555050505050505050565b600160009054906101000a900473ffffffffffffffffffffffffffffffffffffffff1681565b60008060016002546114c99190612427565b67ffffffffffffffff8111156114e2576114e161245b565b5b60405190808252806020026020018201604052801561151b57816020015b611508611b2f565b8152602001906001900390816115005790505b5090506000600190505b60025481101561172257600660008281526020019081526020016000206040518060c001604052908160008201805461155d906124b9565b80601f0160208091040260200160405190810160405280929190818152602001828054611589906124b9565b80156115d65780601f106115ab576101008083540402835291602001916115d6565b820191906000526020600020905b8154815290600101906020018083116115b957829003601f168201915b505050505081526020016001820154815260200160028201548152602001600382018054611603906124b9565b80601f016020809104026020016040519081016040528092919081815260200182805461162f906124b9565b801561167c5780601f106116515761010080835404028352916020019161167c565b820191906000526020600020905b81548152906001019060200180831161165f57829003601f168201915b50505050508152602001600482015481526020016005820160009054906101000a900473ffffffffffffffffffffffffffffffffffffffff1673ffffffffffffffffffffffffffffffffffffffff1673ffffffffffffffffffffffffffffffffffffffff1681525050826001836116f39190612427565b81518110611704576117036124ea565b5b6020026020010181905250808061171a90612519565b915050611525565b5060005b815181101561179e578373ffffffffffffffffffffffffffffffffffffffff16828281518110611759576117586124ea565b5b602002602001015160a0015173ffffffffffffffffffffffffffffffffffffffff160361178b576000925050506117a5565b808061179690612519565b915050611726565b5060019150505b919050565b60008060016003546117bc9190612427565b67ffffffffffffffff8111156117d5576117d461245b565b5b60405190808252806020026020018201604052801561180e57816020015b6117fb611b7b565b8152602001906001900390816117f35790505b5090506000600190505b600354811015611aa757600760008281526020019081526020016000206040518060e0016040529081600082018054611850906124b9565b80601f016020809104026020016040519081016040528092919081815260200182805461187c906124b9565b80156118c95780601f1061189e576101008083540402835291602001916118c9565b820191906000526020600020905b8154815290600101906020018083116118ac57829003601f168201915b505050505081526020016001820180546118e2906124b9565b80601f016020809104026020016040519081016040528092919081815260200182805461190e906124b9565b801561195b5780601f106119305761010080835404028352916020019161195b565b820191906000526020600020905b81548152906001019060200180831161193e57829003601f168201915b505050505081526020016002820154815260200160038201805461197e906124b9565b80601f01602080910402602001604051908101604052809291908181526020018280546119aa906124b9565b80156119f75780601f106119cc576101008083540402835291602001916119f7565b820191906000526020600020905b8154815290600101906020018083116119da57829003601f168201915b50505050508152602001600482015481526020016005820160009054906101000a900473ffffffffffffffffffffffffffffffffffffffff1673ffffffffffffffffffffffffffffffffffffffff1673ffffffffffffffffffffffffffffffffffffffff16815260200160068201548152505082600183611a789190612427565b81518110611a8957611a886124ea565b5b60200260200101819052508080611a9f90612519565b915050611818565b5060005b8151811015611b23578373ffffffffffffffffffffffffffffffffffffffff16828281518110611ade57611add6124ea565b5b602002602001015160a0015173ffffffffffffffffffffffffffffffffffffffff1603611b1057600092505050611b2a565b8080611b1b90612519565b915050611aab565b5060019150505b919050565b6040518060c001604052806060815260200160008152602001600081526020016060815260200160008152602001600073ffffffffffffffffffffffffffffffffffffffff1681525090565b6040518060e001604052806060815260200160608152602001600081526020016060815260200160008152602001600073ffffffffffffffffffffffffffffffffffffffff168152602001600081525090565b828054611bda906124b9565b90600052602060002090601f016020900481019282611bfc5760008555611c43565b82601f10611c1557805160ff1916838001178555611c43565b82800160010185558215611c43579182015b82811115611c42578251825591602001919060010190611c27565b5b509050611c509190611ce1565b5090565b828054611c60906124b9565b90600052602060002090601f016020900481019282611c825760008555611cd0565b82601f10611c935780548555611cd0565b82800160010185558215611cd057600052602060002091601f016020900482015b82811115611ccf578254825591600101919060010190611cb4565b5b509050611cdd9190611ce1565b5090565b5b80821115611cfa576000816000905550600101611ce2565b5090565b600081519050919050565b600082825260208201905092915050565b60005b83811015611d38578082015181840152602081019050611d1d565b83811115611d47576000848401525b50505050565b6000601f19601f8301169050919050565b6000611d6982611cfe565b611d738185611d09565b9350611d83818560208601611d1a565b611d8c81611d4d565b840191505092915050565b60006020820190508181036000830152611db18184611d5e565b905092915050565b600081519050919050565b600082825260208201905092915050565b6000819050602082019050919050565b600082825260208201905092915050565b6000611e0182611cfe565b611e0b8185611de5565b9350611e1b818560208601611d1a565b611e2481611d4d565b840191505092915050565b6000819050919050565b611e4281611e2f565b82525050565b600073ffffffffffffffffffffffffffffffffffffffff82169050919050565b6000611e7382611e48565b9050919050565b611e8381611e68565b82525050565b600060c0830160008301518482036000860152611ea68282611df6565b9150506020830151611ebb6020860182611e39565b506040830151611ece6040860182611e39565b5060608301518482036060860152611ee68282611df6565b9150506080830151611efb6080860182611e39565b5060a0830151611f0e60a0860182611e7a565b508091505092915050565b6000611f258383611e89565b905092915050565b6000602082019050919050565b6000611f4582611db9565b611f4f8185611dc4565b935083602082028501611f6185611dd5565b8060005b85811015611f9d5784840389528151611f7e8582611f19565b9450611f8983611f2d565b925060208a01995050600181019050611f65565b50829750879550505050505092915050565b60006020820190508181036000830152611fc98184611f3a565b905092915050565b600081519050919050565b600082825260208201905092915050565b6000819050602082019050919050565b600060e083016000830151848203600086015261201a8282611df6565b915050602083015184820360208601526120348282611df6565b91505060408301516120496040860182611e39565b50606083015184820360608601526120618282611df6565b91505060808301516120766080860182611e39565b5060a083015161208960a0860182611e7a565b5060c083015161209c60c0860182611e39565b508091505092915050565b60006120b38383611ffd565b905092915050565b6000602082019050919050565b60006120d382611fd1565b6120dd8185611fdc565b9350836020820285016120ef85611fed565b8060005b8581101561212b578484038952815161210c85826120a7565b9450612117836120bb565b925060208a019950506001810190506120f3565b50829750879550505050505092915050565b6000602082019050818103600083015261215781846120c8565b905092915050565b600080fd5b600080fd5b61217281611e2f565b811461217d57600080fd5b50565b60008135905061218f81612169565b92915050565b600080604083850312156121ac576121ab61215f565b5b60006121ba85828601612180565b92505060206121cb85828601612180565b9150509250929050565b6121de81611e68565b82525050565b60006020820190506121f960008301846121d5565b92915050565b600080fd5b600080fd5b600080fd5b60008083601f840112612224576122236121ff565b5b8235905067ffffffffffffffff81111561224157612240612204565b5b60208301915083600182028301111561225d5761225c612209565b5b9250929050565b6000806000806000606086880312156122805761227f61215f565b5b600086013567ffffffffffffffff81111561229e5761229d612164565b5b6122aa8882890161220e565b955095505060206122bd88828901612180565b935050604086013567ffffffffffffffff8111156122de576122dd612164565b5b6122ea8882890161220e565b92509250509295509295909350565b60008115159050919050565b61230e816122f9565b82525050565b60006020820190506123296000830184612305565b92915050565b60008060008060008060006080888a03121561234e5761234d61215f565b5b600088013567ffffffffffffffff81111561236c5761236b612164565b5b6123788a828b0161220e565b9750975050602088013567ffffffffffffffff81111561239b5761239a612164565b5b6123a78a828b0161220e565b955095505060406123ba8a828b01612180565b935050606088013567ffffffffffffffff8111156123db576123da612164565b5b6123e78a828b0161220e565b925092505092959891949750929550565b7f4e487b7100000000000000000000000000000000000000000000000000000000600052601160045260246000fd5b600061243282611e2f565b915061243d83611e2f565b9250828210156124505761244f6123f8565b5b828203905092915050565b7f4e487b7100000000000000000000000000000000000000000000000000000000600052604160045260246000fd5b7f4e487b7100000000000000000000000000000000000000000000000000000000600052602260045260246000fd5b600060028204905060018216806124d157607f821691505b6020821081036124e4576124e361248a565b5b50919050565b7f4e487b7100000000000000000000000000000000000000000000000000000000600052603260045260246000fd5b600061252482611e2f565b91507fffffffffffffffffffffffffffffffffffffffffffffffffffffffffffffffff8203612556576125556123f8565b5b600182019050919050565b7f596f7520617265206e6f742066726f6d20656c656374696f6e20636f6d6d697360008201527f696f6e0000000000000000000000000000000000000000000000000000000000602082015250565b60006125bd602383611d09565b91506125c882612561565b604082019050919050565b600060208201905081810360008301526125ec816125b0565b9050919050565b7f596f7520617265206e6f742066726f6d20456c656374696f6e20436f6d6d697360008201527f696f6e0000000000000000000000000000000000000000000000000000000000602082015250565b600061264f602383611d09565b915061265a826125f3565b604082019050919050565b6000602082019050818103600083015261267e81612642565b9050919050565b600061269082611e2f565b915061269b83611e2f565b9250827fffffffffffffffffffffffffffffffffffffffffffffffffffffffffffffffff038211156126d0576126cf6123f8565b5b828201905092915050565b7f596f75206861766520616c726561647920726567697374657264000000000000600082015250565b6000612711601a83611d09565b915061271c826126db565b602082019050919050565b6000602082019050818103600083015261274081612704565b9050919050565b7f596f7520617265206e6f7420656c696769626c6520746f20766f746500000000600082015250565b600061277d601c83611d09565b915061278882612747565b602082019050919050565b600060208201905081810360008301526127ac81612770565b9050919050565b7f566f74696e67206973206f766572000000000000000000000000000000000000600082015250565b60006127e9600e83611d09565b91506127f4826127b3565b602082019050919050565b60006020820190508181036000830152612818816127dc565b9050919050565b7f596f75206861766520616c726561647920766f74656400000000000000000000600082015250565b6000612855601683611d09565b91506128608261281f565b602082019050919050565b6000602082019050818103600083015261288481612848565b9050919050565b7f596f7520617265206e6f74206120766f74657200000000000000000000000000600082015250565b60006128c1601383611d09565b91506128cc8261288b565b602082019050919050565b600060208201905081810360008301526128f0816128b4565b9050919050565b7f566f74696e6720686173206e6f74207374617274656400000000000000000000600082015250565b600061292d601683611d09565b9150612938826128f7565b602082019050919050565b6000602082019050818103600083015261295c81612920565b9050919050565b7f546865726520617265206e6f2063616e6469646174657320746f20766f746500600082015250565b6000612999601f83611d09565b91506129a482612963565b602082019050919050565b600060208201905081810360008301526129c88161298c565b9050919050565b7f43616e64696461746520646f6573206e6f742065786973740000000000000000600082015250565b6000612a05601883611d09565b9150612a10826129cf565b602082019050919050565b60006020820190508181036000830152612a34816129f8565b9050919050565b7f596f7520617265206e6f742066726f6d20656c656374696f6e20636f6d6d697360008201527f73696f6e00000000000000000000000000000000000000000000000000000000602082015250565b6000612a97602483611d09565b9150612aa282612a3b565b604082019050919050565b60006020820190508181036000830152612ac681612a8a565b9050919050565b7f596f7520617265206e6f7420656c696769626c6520746f20626520612063616e60008201527f6469646174650000000000000000000000000000000000000000000000000000602082015250565b6000612b29602683611d09565b9150612b3482612acd565b604082019050919050565b60006020820190508181036000830152612b5881612b1c565b9050919050565b7f526567697374726174696f6e2069732066756c6c000000000000000000000000600082015250565b6000612b95601483611d09565b9150612ba082612b5f565b602082019050919050565b60006020820190508181036000830152612bc481612b88565b905091905056fea26469706673582212202b9762e8c3697df4ea2be8b5cbd8a8b72201b4f993714faf0356d11a1c70d74664736f6c634300080e0033",
  "immutableReferences": {},
  "source": "// SPDX-License-Identifier: MIT\r\npragma solidity >=0.5.0 <0.9.0;\r\n\r\ncontract Vote {\r\n    address electionCommission;\r\n    address public winner;\r\n    struct Voter {\r\n        string name;\r\n        uint256 age;\r\n        uint256 voterId;\r\n        string gender;\r\n        uint256 voteCandidateId;\r\n        address voterAddress;\r\n    }\r\n\r\n    struct Candidate {\r\n        string name;\r\n        string party;\r\n        uint256 age;\r\n        string gender;\r\n        uint256 candidateId;\r\n        address candidateAddress;\r\n        uint256 votes;\r\n    }\r\n\r\n    uint256 nextVoterId = 1;\r\n    uint256 nextCandidateId = 1;\r\n    uint256 startTime;\r\n    uint256 endTime;\r\n    mapping(uint256 => Voter) voterDetails;\r\n    mapping(uint256 => Candidate) candidateDetails;\r\n    bool stopVoting;\r\n    Voter[] private voteArr;\r\n\r\n    constructor() {\r\n        electionCommission = msg.sender;\r\n    }\r\n\r\n    modifier isVotingOver() {\r\n        require(endTime > block.timestamp || stopVoting, \"Voting is over\");\r\n        _;\r\n    }\r\n    function getWinner() public view returns(address){\r\n        return winner;\r\n    }\r\n\r\n    function voterVerification(address _person) internal view returns (bool) {\r\n        Voter[] memory arr = new Voter[](nextVoterId - 1);\r\n\r\n        for (uint256 i = 1; i < nextVoterId; i++) {\r\n            arr[i - 1] = voterDetails[i];\r\n        }\r\n        for (uint256 i = 0; i < arr.length; i++) {\r\n            if (arr[i].voterAddress == _person) {\r\n                return false;\r\n            }\r\n        }\r\n        return true;\r\n    }\r\n\r\n    function candidateVerification(address _person)\r\n        internal\r\n        view\r\n        returns (bool)\r\n    {\r\n        Candidate[] memory arr = new Candidate[](nextCandidateId - 1);\r\n\r\n        for (uint256 i = 1; i < nextCandidateId; i++) {\r\n            arr[i - 1] = candidateDetails[i];\r\n        }\r\n        for (uint256 i = 0; i < arr.length; i++) {\r\n            if (arr[i].candidateAddress == _person) {\r\n                return false;\r\n            }\r\n        }\r\n        return true;\r\n    }\r\n\r\n    function voterRegister(\r\n        string calldata _name,\r\n        uint256 _age,\r\n        string calldata _gender\r\n    ) external returns (bool) {\r\n        require(voterVerification(msg.sender), \"You have already registerd\");\r\n        require(_age >= 18, \"You are not eligible to vote\");\r\n        voterDetails[nextVoterId] = Voter(\r\n            _name,\r\n            _age,\r\n            nextVoterId,\r\n            _gender,\r\n            0,\r\n            msg.sender\r\n        );\r\n        voteArr.push(voterDetails[nextVoterId]);\r\n        nextVoterId++;\r\n        return true;\r\n    }\r\n\r\n    function vote(uint256 _voterId, uint256 _id) external isVotingOver {\r\n        require(\r\n            voterDetails[_voterId].voteCandidateId == 0,\r\n            \"You have already voted\"\r\n        );\r\n        require(\r\n            voterDetails[_voterId].voterAddress == msg.sender,\r\n            \"You are not a voter\"\r\n        );\r\n        require(startTime != 0, \"Voting has not started\");\r\n        require(nextCandidateId > 2, \"There are no candidates to vote\");\r\n        require(_id < 3, \"Candidate does not exist\");\r\n        voterDetails[_voterId].voteCandidateId = _id;\r\n        candidateDetails[_id].votes++;\r\n    }\r\n\r\n    function candidateRegister(\r\n        string calldata _name,\r\n        string calldata _party,\r\n        uint256 _age,\r\n        string calldata _gender\r\n    ) external {\r\n        require(\r\n            candidateVerification(msg.sender),\r\n            \"You have already registerd\"\r\n        );\r\n        require(_age >= 18, \"You are not eligible to be a candidate\");\r\n        require(nextCandidateId < 3, \"Registration is full\");\r\n        candidateDetails[nextCandidateId] = Candidate(\r\n            _name,\r\n            _party,\r\n            _age,\r\n            _gender,\r\n            nextCandidateId,\r\n            msg.sender,\r\n            0\r\n        );\r\n        nextCandidateId++;\r\n    }\r\n\r\n    function result() external {\r\n        require(\r\n            msg.sender == electionCommission,\r\n            \"You are not from election commision\"\r\n        );\r\n        //require - for timings\r\n        //require- emergency\r\n        //require- to check whether candidates have registered for this or not\r\n        Candidate[] memory arr = new Candidate[](nextCandidateId - 1);\r\n        arr = candidateList();\r\n\r\n        if (arr[0].votes > arr[1].votes) {\r\n            winner = arr[0].candidateAddress;\r\n        } else {\r\n            winner = arr[1].candidateAddress;\r\n        }\r\n    }\r\n\r\n    function candidateList() public view returns (Candidate[] memory) {\r\n        Candidate[] memory arr = new Candidate[](nextCandidateId - 1);\r\n\r\n        for (uint256 i = 1; i < nextCandidateId; i++) {\r\n            arr[i - 1] = candidateDetails[i];\r\n        }\r\n        return arr;\r\n    }\r\n\r\n    function voterList() external view returns (Voter[] memory) {\r\n        Voter[] memory arr = new Voter[](nextVoterId - 1);\r\n        for (uint256 i = 1; i < nextVoterId; i++) {\r\n            arr[i - 1] = voterDetails[i];\r\n        }\r\n        return arr;\r\n    }\r\n\r\n    function voteTime(uint256 _startTime, uint256 _endTime) external {\r\n        require(\r\n            msg.sender == electionCommission,\r\n            \"You are not from Election Commision\"\r\n        );\r\n        startTime = block.timestamp + _startTime;\r\n        endTime = startTime + _endTime;\r\n        stopVoting = false;\r\n    }\r\n\r\n    function votingStatus() public view returns (string memory) {\r\n        if (startTime == 0) {\r\n            return \"Not Started\";\r\n        } else if (\r\n            (startTime != 0 && endTime > block.timestamp) && stopVoting == false\r\n        ) {\r\n            return \"In progress\";\r\n        } else {\r\n            return \"Ended\";\r\n        }\r\n    }\r\n\r\n    function emergency() public {\r\n        require(electionCommission == msg.sender, \"You are not from election commission\");\r\n        stopVoting = true;\r\n    }\r\n}\r\n\r\n// Candidate Registration Page\r\n// Candidate Login Page\r\n// Voter Registration Page\r\n// Voter Login Page\r\n",
  "sourcePath": "C:\\Users\\lalit\\OneDrive\\Desktop\\Voting Dapp\\Vstarter\\contracts\\Voting.sol",
  "compiler": {
    "name": "solc",
    "version": "0.8.14+commit.80d49f37.Emscripten.clang"
  },
  "schemaVersion": "3.4.13",
  "updatedAt": "2023-04-15T03:24:31.958Z",
  "networkType": "ethereum",
  "devdoc": {
    "kind": "dev",
    "methods": {},
    "version": 1
  },
  "userdoc": {
    "kind": "user",
    "methods": {},
    "version": 1
  }
}